{
    "abi": [
        {
            "type": "constructor",
            "inputs": [
                {
                    "name": "_poolManager",
                    "type": "address",
                    "internalType": "contract ICLPoolManager"
                },
                {
                    "name": "_brevisRequest",
                    "type": "address",
                    "internalType": "address"
                }
            ],
            "stateMutability": "nonpayable"
        },
        {
            "type": "function",
            "name": "HISTORICAL_DATA_POINTS",
            "inputs": [],
            "outputs": [
                {
                    "name": "",
                    "type": "uint256",
                    "internalType": "uint256"
                }
            ],
            "stateMutability": "view"
        },
        {
            "type": "function",
            "name": "UPDATE_INTERVAL",
            "inputs": [],
            "outputs": [
                {
                    "name": "",
                    "type": "uint256",
                    "internalType": "uint256"
                }
            ],
            "stateMutability": "view"
        },
        {
            "type": "function",
            "name": "afterAddLiquidity",
            "inputs": [
                {
                    "name": "",
                    "type": "address",
                    "internalType": "address"
                },
                {
                    "name": "key",
                    "type": "tuple",
                    "internalType": "struct PoolKey",
                    "components": [
                        {
                            "name": "currency0",
                            "type": "address",
                            "internalType": "Currency"
                        },
                        {
                            "name": "currency1",
                            "type": "address",
                            "internalType": "Currency"
                        },
                        {
                            "name": "hooks",
                            "type": "address",
                            "internalType": "contract IHooks"
                        },
                        {
                            "name": "poolManager",
                            "type": "address",
                            "internalType": "contract IPoolManager"
                        },
                        {
                            "name": "fee",
                            "type": "uint24",
                            "internalType": "uint24"
                        },
                        {
                            "name": "parameters",
                            "type": "bytes32",
                            "internalType": "bytes32"
                        }
                    ]
                },
                {
                    "name": "params",
                    "type": "tuple",
                    "internalType": "struct ICLPoolManager.ModifyLiquidityParams",
                    "components": [
                        {
                            "name": "tickLower",
                            "type": "int24",
                            "internalType": "int24"
                        },
                        {
                            "name": "tickUpper",
                            "type": "int24",
                            "internalType": "int24"
                        },
                        {
                            "name": "liquidityDelta",
                            "type": "int256",
                            "internalType": "int256"
                        },
                        {
                            "name": "salt",
                            "type": "bytes32",
                            "internalType": "bytes32"
                        }
                    ]
                },
                {
                    "name": "delta",
                    "type": "int256",
                    "internalType": "BalanceDelta"
                },
                {
                    "name": "",
                    "type": "bytes",
                    "internalType": "bytes"
                }
            ],
            "outputs": [
                {
                    "name": "",
                    "type": "bytes4",
                    "internalType": "bytes4"
                },
                {
                    "name": "",
                    "type": "int256",
                    "internalType": "BalanceDelta"
                }
            ],
            "stateMutability": "nonpayable"
        },
        {
            "type": "function",
            "name": "afterDonate",
            "inputs": [
                {
                    "name": "",
                    "type": "address",
                    "internalType": "address"
                },
                {
                    "name": "",
                    "type": "tuple",
                    "internalType": "struct PoolKey",
                    "components": [
                        {
                            "name": "currency0",
                            "type": "address",
                            "internalType": "Currency"
                        },
                        {
                            "name": "currency1",
                            "type": "address",
                            "internalType": "Currency"
                        },
                        {
                            "name": "hooks",
                            "type": "address",
                            "internalType": "contract IHooks"
                        },
                        {
                            "name": "poolManager",
                            "type": "address",
                            "internalType": "contract IPoolManager"
                        },
                        {
                            "name": "fee",
                            "type": "uint24",
                            "internalType": "uint24"
                        },
                        {
                            "name": "parameters",
                            "type": "bytes32",
                            "internalType": "bytes32"
                        }
                    ]
                },
                {
                    "name": "",
                    "type": "uint256",
                    "internalType": "uint256"
                },
                {
                    "name": "",
                    "type": "uint256",
                    "internalType": "uint256"
                },
                {
                    "name": "",
                    "type": "bytes",
                    "internalType": "bytes"
                }
            ],
            "outputs": [
                {
                    "name": "",
                    "type": "bytes4",
                    "internalType": "bytes4"
                }
            ],
            "stateMutability": "nonpayable"
        },
        {
            "type": "function",
            "name": "afterInitialize",
            "inputs": [
                {
                    "name": "",
                    "type": "address",
                    "internalType": "address"
                },
                {
                    "name": "key",
                    "type": "tuple",
                    "internalType": "struct PoolKey",
                    "components": [
                        {
                            "name": "currency0",
                            "type": "address",
                            "internalType": "Currency"
                        },
                        {
                            "name": "currency1",
                            "type": "address",
                            "internalType": "Currency"
                        },
                        {
                            "name": "hooks",
                            "type": "address",
                            "internalType": "contract IHooks"
                        },
                        {
                            "name": "poolManager",
                            "type": "address",
                            "internalType": "contract IPoolManager"
                        },
                        {
                            "name": "fee",
                            "type": "uint24",
                            "internalType": "uint24"
                        },
                        {
                            "name": "parameters",
                            "type": "bytes32",
                            "internalType": "bytes32"
                        }
                    ]
                },
                {
                    "name": "",
                    "type": "uint160",
                    "internalType": "uint160"
                },
                {
                    "name": "",
                    "type": "int24",
                    "internalType": "int24"
                },
                {
                    "name": "hookData",
                    "type": "bytes",
                    "internalType": "bytes"
                }
            ],
            "outputs": [
                {
                    "name": "",
                    "type": "bytes4",
                    "internalType": "bytes4"
                }
            ],
            "stateMutability": "nonpayable"
        },
        {
            "type": "function",
            "name": "afterRemoveLiquidity",
            "inputs": [
                {
                    "name": "",
                    "type": "address",
                    "internalType": "address"
                },
                {
                    "name": "key",
                    "type": "tuple",
                    "internalType": "struct PoolKey",
                    "components": [
                        {
                            "name": "currency0",
                            "type": "address",
                            "internalType": "Currency"
                        },
                        {
                            "name": "currency1",
                            "type": "address",
                            "internalType": "Currency"
                        },
                        {
                            "name": "hooks",
                            "type": "address",
                            "internalType": "contract IHooks"
                        },
                        {
                            "name": "poolManager",
                            "type": "address",
                            "internalType": "contract IPoolManager"
                        },
                        {
                            "name": "fee",
                            "type": "uint24",
                            "internalType": "uint24"
                        },
                        {
                            "name": "parameters",
                            "type": "bytes32",
                            "internalType": "bytes32"
                        }
                    ]
                },
                {
                    "name": "params",
                    "type": "tuple",
                    "internalType": "struct ICLPoolManager.ModifyLiquidityParams",
                    "components": [
                        {
                            "name": "tickLower",
                            "type": "int24",
                            "internalType": "int24"
                        },
                        {
                            "name": "tickUpper",
                            "type": "int24",
                            "internalType": "int24"
                        },
                        {
                            "name": "liquidityDelta",
                            "type": "int256",
                            "internalType": "int256"
                        },
                        {
                            "name": "salt",
                            "type": "bytes32",
                            "internalType": "bytes32"
                        }
                    ]
                },
                {
                    "name": "delta",
                    "type": "int256",
                    "internalType": "BalanceDelta"
                },
                {
                    "name": "",
                    "type": "bytes",
                    "internalType": "bytes"
                }
            ],
            "outputs": [
                {
                    "name": "",
                    "type": "bytes4",
                    "internalType": "bytes4"
                },
                {
                    "name": "",
                    "type": "int256",
                    "internalType": "BalanceDelta"
                }
            ],
            "stateMutability": "nonpayable"
        },
        {
            "type": "function",
            "name": "afterSwap",
            "inputs": [
                {
                    "name": "",
                    "type": "address",
                    "internalType": "address"
                },
                {
                    "name": "key",
                    "type": "tuple",
                    "internalType": "struct PoolKey",
                    "components": [
                        {
                            "name": "currency0",
                            "type": "address",
                            "internalType": "Currency"
                        },
                        {
                            "name": "currency1",
                            "type": "address",
                            "internalType": "Currency"
                        },
                        {
                            "name": "hooks",
                            "type": "address",
                            "internalType": "contract IHooks"
                        },
                        {
                            "name": "poolManager",
                            "type": "address",
                            "internalType": "contract IPoolManager"
                        },
                        {
                            "name": "fee",
                            "type": "uint24",
                            "internalType": "uint24"
                        },
                        {
                            "name": "parameters",
                            "type": "bytes32",
                            "internalType": "bytes32"
                        }
                    ]
                },
                {
                    "name": "params",
                    "type": "tuple",
                    "internalType": "struct ICLPoolManager.SwapParams",
                    "components": [
                        {
                            "name": "zeroForOne",
                            "type": "bool",
                            "internalType": "bool"
                        },
                        {
                            "name": "amountSpecified",
                            "type": "int256",
                            "internalType": "int256"
                        },
                        {
                            "name": "sqrtPriceLimitX96",
                            "type": "uint160",
                            "internalType": "uint160"
                        }
                    ]
                },
                {
                    "name": "delta",
                    "type": "int256",
                    "internalType": "BalanceDelta"
                },
                {
                    "name": "",
                    "type": "bytes",
                    "internalType": "bytes"
                }
            ],
            "outputs": [
                {
                    "name": "",
                    "type": "bytes4",
                    "internalType": "bytes4"
                },
                {
                    "name": "",
                    "type": "int128",
                    "internalType": "int128"
                }
            ],
            "stateMutability": "nonpayable"
        },
        {
            "type": "function",
            "name": "applyBrevisOpResult",
            "inputs": [
                {
                    "name": "_proofId",
                    "type": "bytes32",
                    "internalType": "bytes32"
                },
                {
                    "name": "_nonce",
                    "type": "uint64",
                    "internalType": "uint64"
                },
                {
                    "name": "_appVkHash",
                    "type": "bytes32",
                    "internalType": "bytes32"
                },
                {
                    "name": "_appCommitHash",
                    "type": "bytes32",
                    "internalType": "bytes32"
                },
                {
                    "name": "_appCircuitOutput",
                    "type": "bytes",
                    "internalType": "bytes"
                }
            ],
            "outputs": [],
            "stateMutability": "nonpayable"
        },
        {
            "type": "function",
            "name": "applyBrevisOpResults",
            "inputs": [
                {
                    "name": "_proofIds",
                    "type": "bytes32[]",
                    "internalType": "bytes32[]"
                },
                {
                    "name": "_nonces",
                    "type": "uint64[]",
                    "internalType": "uint64[]"
                },
                {
                    "name": "_appVkHashes",
                    "type": "bytes32[]",
                    "internalType": "bytes32[]"
                },
                {
                    "name": "_appCommitHashes",
                    "type": "bytes32[]",
                    "internalType": "bytes32[]"
                },
                {
                    "name": "_appCircuitOutputs",
                    "type": "bytes[]",
                    "internalType": "bytes[]"
                }
            ],
            "outputs": [],
            "stateMutability": "nonpayable"
        },
        {
            "type": "function",
            "name": "beforeAddLiquidity",
            "inputs": [
                {
                    "name": "",
                    "type": "address",
                    "internalType": "address"
                },
                {
                    "name": "",
                    "type": "tuple",
                    "internalType": "struct PoolKey",
                    "components": [
                        {
                            "name": "currency0",
                            "type": "address",
                            "internalType": "Currency"
                        },
                        {
                            "name": "currency1",
                            "type": "address",
                            "internalType": "Currency"
                        },
                        {
                            "name": "hooks",
                            "type": "address",
                            "internalType": "contract IHooks"
                        },
                        {
                            "name": "poolManager",
                            "type": "address",
                            "internalType": "contract IPoolManager"
                        },
                        {
                            "name": "fee",
                            "type": "uint24",
                            "internalType": "uint24"
                        },
                        {
                            "name": "parameters",
                            "type": "bytes32",
                            "internalType": "bytes32"
                        }
                    ]
                },
                {
                    "name": "",
                    "type": "tuple",
                    "internalType": "struct ICLPoolManager.ModifyLiquidityParams",
                    "components": [
                        {
                            "name": "tickLower",
                            "type": "int24",
                            "internalType": "int24"
                        },
                        {
                            "name": "tickUpper",
                            "type": "int24",
                            "internalType": "int24"
                        },
                        {
                            "name": "liquidityDelta",
                            "type": "int256",
                            "internalType": "int256"
                        },
                        {
                            "name": "salt",
                            "type": "bytes32",
                            "internalType": "bytes32"
                        }
                    ]
                },
                {
                    "name": "",
                    "type": "bytes",
                    "internalType": "bytes"
                }
            ],
            "outputs": [
                {
                    "name": "",
                    "type": "bytes4",
                    "internalType": "bytes4"
                }
            ],
            "stateMutability": "nonpayable"
        },
        {
            "type": "function",
            "name": "beforeDonate",
            "inputs": [
                {
                    "name": "",
                    "type": "address",
                    "internalType": "address"
                },
                {
                    "name": "",
                    "type": "tuple",
                    "internalType": "struct PoolKey",
                    "components": [
                        {
                            "name": "currency0",
                            "type": "address",
                            "internalType": "Currency"
                        },
                        {
                            "name": "currency1",
                            "type": "address",
                            "internalType": "Currency"
                        },
                        {
                            "name": "hooks",
                            "type": "address",
                            "internalType": "contract IHooks"
                        },
                        {
                            "name": "poolManager",
                            "type": "address",
                            "internalType": "contract IPoolManager"
                        },
                        {
                            "name": "fee",
                            "type": "uint24",
                            "internalType": "uint24"
                        },
                        {
                            "name": "parameters",
                            "type": "bytes32",
                            "internalType": "bytes32"
                        }
                    ]
                },
                {
                    "name": "",
                    "type": "uint256",
                    "internalType": "uint256"
                },
                {
                    "name": "",
                    "type": "uint256",
                    "internalType": "uint256"
                },
                {
                    "name": "",
                    "type": "bytes",
                    "internalType": "bytes"
                }
            ],
            "outputs": [
                {
                    "name": "",
                    "type": "bytes4",
                    "internalType": "bytes4"
                }
            ],
            "stateMutability": "nonpayable"
        },
        {
            "type": "function",
            "name": "beforeInitialize",
            "inputs": [
                {
                    "name": "",
                    "type": "address",
                    "internalType": "address"
                },
                {
                    "name": "",
                    "type": "tuple",
                    "internalType": "struct PoolKey",
                    "components": [
                        {
                            "name": "currency0",
                            "type": "address",
                            "internalType": "Currency"
                        },
                        {
                            "name": "currency1",
                            "type": "address",
                            "internalType": "Currency"
                        },
                        {
                            "name": "hooks",
                            "type": "address",
                            "internalType": "contract IHooks"
                        },
                        {
                            "name": "poolManager",
                            "type": "address",
                            "internalType": "contract IPoolManager"
                        },
                        {
                            "name": "fee",
                            "type": "uint24",
                            "internalType": "uint24"
                        },
                        {
                            "name": "parameters",
                            "type": "bytes32",
                            "internalType": "bytes32"
                        }
                    ]
                },
                {
                    "name": "",
                    "type": "uint160",
                    "internalType": "uint160"
                },
                {
                    "name": "",
                    "type": "bytes",
                    "internalType": "bytes"
                }
            ],
            "outputs": [
                {
                    "name": "",
                    "type": "bytes4",
                    "internalType": "bytes4"
                }
            ],
            "stateMutability": "nonpayable"
        },
        {
            "type": "function",
            "name": "beforeRemoveLiquidity",
            "inputs": [
                {
                    "name": "",
                    "type": "address",
                    "internalType": "address"
                },
                {
                    "name": "",
                    "type": "tuple",
                    "internalType": "struct PoolKey",
                    "components": [
                        {
                            "name": "currency0",
                            "type": "address",
                            "internalType": "Currency"
                        },
                        {
                            "name": "currency1",
                            "type": "address",
                            "internalType": "Currency"
                        },
                        {
                            "name": "hooks",
                            "type": "address",
                            "internalType": "contract IHooks"
                        },
                        {
                            "name": "poolManager",
                            "type": "address",
                            "internalType": "contract IPoolManager"
                        },
                        {
                            "name": "fee",
                            "type": "uint24",
                            "internalType": "uint24"
                        },
                        {
                            "name": "parameters",
                            "type": "bytes32",
                            "internalType": "bytes32"
                        }
                    ]
                },
                {
                    "name": "",
                    "type": "tuple",
                    "internalType": "struct ICLPoolManager.ModifyLiquidityParams",
                    "components": [
                        {
                            "name": "tickLower",
                            "type": "int24",
                            "internalType": "int24"
                        },
                        {
                            "name": "tickUpper",
                            "type": "int24",
                            "internalType": "int24"
                        },
                        {
                            "name": "liquidityDelta",
                            "type": "int256",
                            "internalType": "int256"
                        },
                        {
                            "name": "salt",
                            "type": "bytes32",
                            "internalType": "bytes32"
                        }
                    ]
                },
                {
                    "name": "",
                    "type": "bytes",
                    "internalType": "bytes"
                }
            ],
            "outputs": [
                {
                    "name": "",
                    "type": "bytes4",
                    "internalType": "bytes4"
                }
            ],
            "stateMutability": "nonpayable"
        },
        {
            "type": "function",
            "name": "beforeSwap",
            "inputs": [
                {
                    "name": "",
                    "type": "address",
                    "internalType": "address"
                },
                {
                    "name": "key",
                    "type": "tuple",
                    "internalType": "struct PoolKey",
                    "components": [
                        {
                            "name": "currency0",
                            "type": "address",
                            "internalType": "Currency"
                        },
                        {
                            "name": "currency1",
                            "type": "address",
                            "internalType": "Currency"
                        },
                        {
                            "name": "hooks",
                            "type": "address",
                            "internalType": "contract IHooks"
                        },
                        {
                            "name": "poolManager",
                            "type": "address",
                            "internalType": "contract IPoolManager"
                        },
                        {
                            "name": "fee",
                            "type": "uint24",
                            "internalType": "uint24"
                        },
                        {
                            "name": "parameters",
                            "type": "bytes32",
                            "internalType": "bytes32"
                        }
                    ]
                },
                {
                    "name": "",
                    "type": "tuple",
                    "internalType": "struct ICLPoolManager.SwapParams",
                    "components": [
                        {
                            "name": "zeroForOne",
                            "type": "bool",
                            "internalType": "bool"
                        },
                        {
                            "name": "amountSpecified",
                            "type": "int256",
                            "internalType": "int256"
                        },
                        {
                            "name": "sqrtPriceLimitX96",
                            "type": "uint160",
                            "internalType": "uint160"
                        }
                    ]
                },
                {
                    "name": "",
                    "type": "bytes",
                    "internalType": "bytes"
                }
            ],
            "outputs": [
                {
                    "name": "",
                    "type": "bytes4",
                    "internalType": "bytes4"
                },
                {
                    "name": "",
                    "type": "int256",
                    "internalType": "BeforeSwapDelta"
                },
                {
                    "name": "",
                    "type": "uint24",
                    "internalType": "uint24"
                }
            ],
            "stateMutability": "view"
        },
        {
            "type": "function",
            "name": "brevisBatchCallback",
            "inputs": [
                {
                    "name": "_appVkHashes",
                    "type": "bytes32[]",
                    "internalType": "bytes32[]"
                },
                {
                    "name": "_appCircuitOutputs",
                    "type": "bytes[]",
                    "internalType": "bytes[]"
                }
            ],
            "outputs": [],
            "stateMutability": "nonpayable"
        },
        {
            "type": "function",
            "name": "brevisCallback",
            "inputs": [
                {
                    "name": "_appVkHash",
                    "type": "bytes32",
                    "internalType": "bytes32"
                },
                {
                    "name": "_appCircuitOutput",
                    "type": "bytes",
                    "internalType": "bytes"
                }
            ],
            "outputs": [],
            "stateMutability": "nonpayable"
        },
        {
            "type": "function",
            "name": "brevisOpConfig",
            "inputs": [],
            "outputs": [
                {
                    "name": "challengeWindow",
                    "type": "uint64",
                    "internalType": "uint64"
                },
                {
                    "name": "sigOption",
                    "type": "uint8",
                    "internalType": "uint8"
                }
            ],
            "stateMutability": "view"
        },
        {
            "type": "function",
            "name": "brevisRequest",
            "inputs": [],
            "outputs": [
                {
                    "name": "",
                    "type": "address",
                    "internalType": "address"
                }
            ],
            "stateMutability": "view"
        },
        {
            "type": "function",
            "name": "getHooksRegistrationBitmap",
            "inputs": [],
            "outputs": [
                {
                    "name": "",
                    "type": "uint16",
                    "internalType": "uint16"
                }
            ],
            "stateMutability": "pure"
        },
        {
            "type": "function",
            "name": "getPoolData",
            "inputs": [
                {
                    "name": "poolId",
                    "type": "bytes32",
                    "internalType": "PoolId"
                }
            ],
            "outputs": [
                {
                    "name": "cumulativeVolume",
                    "type": "uint256",
                    "internalType": "uint256"
                },
                {
                    "name": "lastUpdateTimestamp",
                    "type": "uint256",
                    "internalType": "uint256"
                },
                {
                    "name": "currentTradingFee",
                    "type": "uint24",
                    "internalType": "uint24"
                },
                {
                    "name": "currentLPFee",
                    "type": "uint24",
                    "internalType": "uint24"
                },
                {
                    "name": "token0Balance",
                    "type": "uint256",
                    "internalType": "uint256"
                },
                {
                    "name": "token1Balance",
                    "type": "uint256",
                    "internalType": "uint256"
                },
                {
                    "name": "lastPrice",
                    "type": "uint256",
                    "internalType": "uint256"
                },
                {
                    "name": "historicalVolumes",
                    "type": "uint256[30]",
                    "internalType": "uint256[30]"
                },
                {
                    "name": "historicalVolatilities",
                    "type": "uint256[30]",
                    "internalType": "uint256[30]"
                },
                {
                    "name": "totalLiquidity",
                    "type": "uint256",
                    "internalType": "uint256"
                },
                {
                    "name": "historicalLiquidities",
                    "type": "uint256[30]",
                    "internalType": "uint256[30]"
                },
                {
                    "name": "impermanentLoss",
                    "type": "uint256",
                    "internalType": "uint256"
                },
                {
                    "name": "historicalImpermanentLosses",
                    "type": "uint256[30]",
                    "internalType": "uint256[30]"
                }
            ],
            "stateMutability": "view"
        },
        {
            "type": "function",
            "name": "lockAcquired",
            "inputs": [
                {
                    "name": "rawData",
                    "type": "bytes",
                    "internalType": "bytes"
                }
            ],
            "outputs": [
                {
                    "name": "",
                    "type": "bytes",
                    "internalType": "bytes"
                }
            ],
            "stateMutability": "nonpayable"
        },
        {
            "type": "function",
            "name": "owner",
            "inputs": [],
            "outputs": [
                {
                    "name": "",
                    "type": "address",
                    "internalType": "address"
                }
            ],
            "stateMutability": "view"
        },
        {
            "type": "function",
            "name": "poolDataMap",
            "inputs": [
                {
                    "name": "",
                    "type": "bytes32",
                    "internalType": "PoolId"
                }
            ],
            "outputs": [
                {
                    "name": "cumulativeVolume",
                    "type": "uint256",
                    "internalType": "uint256"
                },
                {
                    "name": "lastUpdateTimestamp",
                    "type": "uint256",
                    "internalType": "uint256"
                },
                {
                    "name": "currentTradingFee",
                    "type": "uint24",
                    "internalType": "uint24"
                },
                {
                    "name": "currentLPFee",
                    "type": "uint24",
                    "internalType": "uint24"
                },
                {
                    "name": "token0Balance",
                    "type": "uint256",
                    "internalType": "uint256"
                },
                {
                    "name": "token1Balance",
                    "type": "uint256",
                    "internalType": "uint256"
                },
                {
                    "name": "lastPrice",
                    "type": "uint256",
                    "internalType": "uint256"
                },
                {
                    "name": "volatilityAccumulator",
                    "type": "uint256",
                    "internalType": "uint256"
                },
                {
                    "name": "updateCount",
                    "type": "uint256",
                    "internalType": "uint256"
                },
                {
                    "name": "totalLiquidity",
                    "type": "uint256",
                    "internalType": "uint256"
                },
                {
                    "name": "impermanentLoss",
                    "type": "uint256",
                    "internalType": "uint256"
                }
            ],
            "stateMutability": "view"
        },
        {
            "type": "function",
            "name": "poolManager",
            "inputs": [],
            "outputs": [
                {
                    "name": "",
                    "type": "address",
                    "internalType": "contract ICLPoolManager"
                }
            ],
            "stateMutability": "view"
        },
        {
            "type": "function",
            "name": "renounceOwnership",
            "inputs": [],
            "outputs": [],
            "stateMutability": "nonpayable"
        },
        {
            "type": "function",
            "name": "setBrevisOpConfig",
            "inputs": [
                {
                    "name": "_challengeWindow",
                    "type": "uint64",
                    "internalType": "uint64"
                },
                {
                    "name": "_sigOption",
                    "type": "uint8",
                    "internalType": "uint8"
                }
            ],
            "outputs": [],
            "stateMutability": "nonpayable"
        },
        {
            "type": "function",
            "name": "setVkHash",
            "inputs": [
                {
                    "name": "_vkHash",
                    "type": "bytes32",
                    "internalType": "bytes32"
                }
            ],
            "outputs": [],
            "stateMutability": "nonpayable"
        },
        {
            "type": "function",
            "name": "transferOwnership",
            "inputs": [
                {
                    "name": "newOwner",
                    "type": "address",
                    "internalType": "address"
                }
            ],
            "outputs": [],
            "stateMutability": "nonpayable"
        },
        {
            "type": "function",
            "name": "vault",
            "inputs": [],
            "outputs": [
                {
                    "name": "",
                    "type": "address",
                    "internalType": "contract IVault"
                }
            ],
            "stateMutability": "view"
        },
        {
            "type": "function",
            "name": "vkHash",
            "inputs": [],
            "outputs": [
                {
                    "name": "",
                    "type": "bytes32",
                    "internalType": "bytes32"
                }
            ],
            "stateMutability": "view"
        },
        {
            "type": "event",
            "name": "FeesUpdated",
            "inputs": [
                {
                    "name": "poolId",
                    "type": "bytes32",
                    "indexed": true,
                    "internalType": "PoolId"
                },
                {
                    "name": "newTradingFee",
                    "type": "uint24",
                    "indexed": false,
                    "internalType": "uint24"
                },
                {
                    "name": "newLPFee",
                    "type": "uint24",
                    "indexed": false,
                    "internalType": "uint24"
                }
            ],
            "anonymous": false
        },
        {
            "type": "event",
            "name": "OwnershipTransferred",
            "inputs": [
                {
                    "name": "previousOwner",
                    "type": "address",
                    "indexed": true,
                    "internalType": "address"
                },
                {
                    "name": "newOwner",
                    "type": "address",
                    "indexed": true,
                    "internalType": "address"
                }
            ],
            "anonymous": false
        },
        {
            "type": "event",
            "name": "PoolDataUpdated",
            "inputs": [
                {
                    "name": "poolId",
                    "type": "bytes32",
                    "indexed": true,
                    "internalType": "PoolId"
                },
                {
                    "name": "cumulativeVolume",
                    "type": "uint256",
                    "indexed": false,
                    "internalType": "uint256"
                },
                {
                    "name": "token0Balance",
                    "type": "uint256",
                    "indexed": false,
                    "internalType": "uint256"
                },
                {
                    "name": "token1Balance",
                    "type": "uint256",
                    "indexed": false,
                    "internalType": "uint256"
                },
                {
                    "name": "volatility",
                    "type": "uint256",
                    "indexed": false,
                    "internalType": "uint256"
                },
                {
                    "name": "totalLiquidity",
                    "type": "uint256",
                    "indexed": false,
                    "internalType": "uint256"
                },
                {
                    "name": "impermanentLoss",
                    "type": "uint256",
                    "indexed": false,
                    "internalType": "uint256"
                }
            ],
            "anonymous": false
        },
        {
            "type": "error",
            "name": "HookNotImplemented",
            "inputs": []
        },
        {
            "type": "error",
            "name": "InvalidPool",
            "inputs": []
        },
        {
            "type": "error",
            "name": "LockFailure",
            "inputs": []
        },
        {
            "type": "error",
            "name": "NotPoolManager",
            "inputs": []
        },
        {
            "type": "error",
            "name": "NotSelf",
            "inputs": []
        },
        {
            "type": "error",
            "name": "NotVault",
            "inputs": []
        },
        {
            "type": "error",
            "name": "OwnableInvalidOwner",
            "inputs": [
                {
                    "name": "owner",
                    "type": "address",
                    "internalType": "address"
                }
            ]
        },
        {
            "type": "error",
            "name": "OwnableUnauthorizedAccount",
            "inputs": [
                {
                    "name": "account",
                    "type": "address",
                    "internalType": "address"
                }
            ]
        }
    ],
    "bytecode": {
        "object": "0x60c080604052346101d4576040816124ae803803809161001f82856101eb565b8339810103126101d4578051906001600160a01b038216908183036101d457602001516001600160a01b03811692908390036101d45760805260405163fbfa77cf60e01b815290602090829060049082905afa9081156101e0575f9161019a575b5060a052604080519081016001600160401b03811182821017610186576040526001600160401b0381526001602090910181905280546001600160481b0319166001600160411b031790555f80546001600160a01b03191691909117905533156101735760028054336001600160a01b03198216811790925560405191906001600160a01b03167f8be0079c531659141344cd1fd0a4f28419497f9722a3daafe3b4186f6b6457e05f80a361229f908161020f8239608051818181610357015281816103ff0152818161044501528181610b6a01528181610edc0152611400015260a05181818161018001526107640152f35b631e4fbdf760e01b5f525f60045260245ffd5b634e487b7160e01b5f52604160045260245ffd5b90506020813d6020116101d8575b816101b5602093836101eb565b810103126101d457516001600160a01b03811681036101d4575f610080565b5f80fd5b3d91506101a8565b6040513d5f823e3d90fd5b601f909101601f19168101906001600160401b038211908210176101865760405256fe60806040526004361015610011575f80fd5b5f803560e01c90816303e66342146115645781631ffe6a58146113a55781632baa93311461130657816334801657146110ec57816338931a31146110c55781633bca02fc1461102d5781634b6a682d1461100b5781634fe840f5146110105781635304d44e1461100b5781636f6657cb14610e81578163715018a614610e26578163718f6ccd14610d0d5781637859f6d914610cec57816379d6b6a214610c9a5781637aa43ce014610b5357816389ac414714610b375781638da5cb5b14610b0f578163972e19a214610aae578163ab6291fe14610732578163c1bde0e114610702578163c657d6c6146105c1578163d533c4db1461042e578163dc4c90d3146103ea578163e592dc9314610300578163e8246c7f14610166578163ed9d346a146102e5578163f2fde38b1461025f578163f961d1f4146101b2578163fbfa77cf1461016b575063fe70c9c914610166575f80fd5b61178a565b346101af57806003193601126101af576040517f00000000000000000000000000000000000000000000000000000000000000006001600160a01b03168152602090f35b80fd5b3461025b575f36600319011261025b576040516101c081018181106001600160401b03821117610247575f916101a0916040528281526001602082015282604082015260016060820152826080820152600160a0820152600160c0820152600160e082015282610100820152826101208201528261014082015282610160820152826101808201520152602060405160ea8152f35b634e487b7160e01b5f52604160045260245ffd5b5f80fd5b3461025b57602036600319011261025b576102786115db565b610280611bf0565b6001600160a01b031680156102d257600280546001600160a01b0319811683179091556001600160a01b03167f8be0079c531659141344cd1fd0a4f28419497f9722a3daafe3b4186f6b6457e05f80a3005b631e4fbdf760e01b5f525f60045260245ffd5b3461025b575f36600319011261025b576020604051601e8152f35b3461025b5761016036600319011261025b5761031a6115db565b5060c036602319011261025b5760603660e319011261025b57610144356001600160401b03811161025b5761035390369060040161163a565b50507f00000000000000000000000000000000000000000000000000000000000000006001600160a01b031633036103db5760c06103903661184f565b205f5260036020526060624000006103ba600260405f20015462ffffff808260181c169116611b26565b1762ffffff6040519163e592dc9360e01b83525f6020840152166040820152f35b63570c108560e11b5f5260045ffd5b3461025b575f36600319011261025b576040517f00000000000000000000000000000000000000000000000000000000000000006001600160a01b03168152602090f35b3461025b5761043c366116fc565b509193509190507f00000000000000000000000000000000000000000000000000000000000000006001600160a01b031633036103db5761048060c09136906118e4565b20805f5260036020526040805f20936104998486611d19565b01355f81131561057e576104bb6001600160801b036044860192168254611b8f565b90555b6104c781611f60565b6001830154610e10810180911161056a576040935f8051602061224a8339815191529142101561055c575b805461054560038301549260048101549061050c81611f35565b60636044830154920154928a51968796879260a094919796959260c0850198855260208501526040840152606083015260808201520152565b0390a281519063d533c4db60e01b82526020820152f35b61056583611e31565b6104f2565b634e487b7160e01b5f52601160045260245ffd5b5f8112156105ba5761058f90611b9c565b604484019081548082115f146105a95750505f90556104be565b906105b391611bac565b90556104be565b505f61058f565b3461025b57602036600319011261025b576103c0806040516105e3828261181e565b369037806040516105f4828261181e565b36903780604051610605828261181e565b369037604051610615828261181e565b3690376004355f52600360205260405f2080549060018101549060028101549060038101546004820154926005830154916044840154926063850154956008860161065f90611bb9565b9261066c60268801611bb9565b9461067960458901611bb9565b9760640161068690611bb9565b996040519b8c5260208c015262ffffff811660408c015260181c62ffffff1660608b015260808a015260a089015260c088015260e087016106c691611763565b6104a086016106d491611763565b61086085015261088084016106e891611763565b610c40830152610c6082016106fc91611763565b61102090f35b3461025b575f36600319011261025b57604060015460ff8251916001600160401b0381168352831c166020820152f35b3461025b57602036600319011261025b576004356001600160401b03811161025b5761076290369060040161163a565b7f00000000000000000000000000000000000000000000000000000000000000006001600160a01b03163303610a9f57810190808203906101e0821261025b576040519260a08401908482106001600160401b03831117610247576107d8916040526107cd836115f1565b8552602083016118e4565b6020840190815292606060df1984011261025b5760405192606084018481106001600160401b038211176102475760405260e083013590811515820361025b576080918552610100840135602086015261083561012085016115f1565b60408601526040830194855261013f19011261025b576040519360808501918583106001600160401b038411176102475760806101c09160c09460405261087f610140870161162c565b885261088e610160870161162c565b602089015261018086013560408901526101a0860135606089015260608101978852019301358352512091825f52600360205260405f20936108d1835186611d19565b8151602001515f919015610a2757505090620f42409162ffffff610901600287015482808260181c169116611b26565b91515191169015610a05576001600160801b0361092461092a935160801d611b3e565b16611b5e565b04600f0b915b600181015490610e10820180921161056a575f8051602061224a833981519152914210156109f7575b80546109ad60038301549260048101549061097381611f35565b6063604483015492015492604051968796879260a094919796959260c0850198855260208501526040840152606083015260808201520152565b0390a2604080516020810192600f0b8352602081526109cc828261181e565b8151928391602083525180918160208501528484015e5f828201840152601f01601f19168101030190f35b610a0083611e31565b610959565b6001600160801b03610924610a1d9351600f0b611b3e565b04600f0b91610930565b8051604001519195935091505f811315610a6b575060406001600160801b039151015116610a5a60448301918254611b8f565b90555b610a6682611f60565b610930565b610a759150611b9c565b6044820180549091908111610a9657610a8f908254611bac565b9055610a5d565b505f9055610a5d565b6362df054560e01b5f5260045ffd5b3461025b5761012036600319011261025b57610ac86115db565b5060c036602319011261025b57610add611605565b50610104356001600160401b03811161025b57610afe90369060040161163a565b5050630a85dc2960e01b5f5260045ffd5b3461025b575f36600319011261025b576002546040516001600160a01b039091168152602090f35b3461025b575f36600319011261025b576020604051610e108152f35b3461025b57610b61366116fc565b509193509190507f00000000000000000000000000000000000000000000000000000000000000006001600160a01b031633036103db57610ba560c09136906118e4565b20805f526003602052610bc86040805f2094610bc18587611d19565b0135611b9c565b604484018054909491908111610c9157610be3908554611bac565b84555b610bef82611f60565b600181015490610e10820180921161056a576040945f8051602061224a83398151915292421015610c83575b610c6c8254916003840154936004810154916063610c3883611f35565b9154920154928a51968796879260a094919796959260c0850198855260208501526040840152606083015260808201520152565b0390a28151906303d521e760e51b82526020820152f35b610c8c84611e31565b610c1b565b505f8455610be6565b3461025b57604036600319011261025b576024356001600160401b03811161025b57610ccd610cea91369060040161163a565b90610ce260018060a01b035f54163314611ae9565b600435611c47565b005b3461025b57602036600319011261025b57610d05611bf0565b600480359055005b3461025b5760a036600319011261025b576024356001600160401b03811680910361025b5760443560643591608435916001600160401b03831161025b5760c493610d5e602094369060040161163a565b949093610d69611c17565b97909160018060a01b035f541660ff6040519a8b95869463054eee2f60e41b86526004356004870152602486015288604486015289606486015260848501521660a48301525afa908115610e1b57610dcf610de792610cea975f91610dec575b506119ca565b610dda368686611a5f565b6020815191012014611aa4565b611c47565b610e0e915060203d602011610e14575b610e06818361181e565b81019061198e565b88610dc9565b503d610dfc565b6040513d5f823e3d90fd5b3461025b575f36600319011261025b57610e3e611bf0565b600280546001600160a01b031981169091555f906001600160a01b03167f8be0079c531659141344cd1fd0a4f28419497f9722a3daafe3b4186f6b6457e08280a3005b3461025b5761018036600319011261025b57610e9b6115db565b5060c036602319011261025b5760603660e319011261025b5761014435610164356001600160401b03811161025b57610ed890369060040161163a565b50507f00000000000000000000000000000000000000000000000000000000000000006001600160a01b031633036103db5760c0610f153661184f565b20805f52600360205260405f2091610f2d8184611d19565b62ffffff610f47600285015482808260181c169116611b26565b169060e43591821515830361025b57620f42409215610fea576001600160801b03610924610f779360801d611b3e565b04600f0b905b6001830154610e10810180911161056a576040935f8051602061224a83398151915291421015610fdc575b8054610fc260038301549260048101549061050c81611f35565b0390a2815190636f6657cb60e01b8252600f0b6020820152f35b610fe583611e31565b610fa8565b6001600160801b0361092461100193600f0b611b3e565b04600f0b90610f7d565b611697565b3461025b575f36600319011261025b576020600454604051908152f35b3461025b57604036600319011261025b576004356001600160401b03811161025b5761105d903690600401611667565b6024356001600160401b03811161025b5761107c903690600401611667565b9061109160018060a01b035f54163314611ae9565b5f5b83811061109c57005b806110bf6110ad6001938789611a0e565b356110b9838787611a1e565b91611c47565b01611093565b3461025b575f36600319011261025b575f546040516001600160a01b039091168152602090f35b3461025b5760a036600319011261025b576004356001600160401b03811161025b5761111c903690600401611667565b6024356001600160401b03811161025b5761113b903690600401611667565b906044356001600160401b03811161025b5761115b903690600401611667565b906064356001600160401b03811161025b5761117b903690600401611667565b949096608435906001600160401b03821161025b5790916111a188933690600401611667565b9390966111ac611c17565b90918a8d60018060a01b035f54169660206111e16040519a8b9963a90f4bd760e01b8b5260c060048c015260c48b01916119a6565b8881036003190160248a01528281520193905f905b8082106112cd575050508593611236611223869560209a989560ff956003198984030160448a01526119a6565b8581036003190160648701528d8d6119a6565b9260848501521660a483015203915afa8015610e1b5761125c915f916112ae57506119ca565b5f5b86811061126757005b8061128e611278600193898c611a0e565b35610dda61128784878b611a1e565b3691611a5f565b6112a861129c828787611a0e565b356110b983868a611a1e565b0161125e565b6112c7915060203d602011610e1457610e06818361181e565b89610dc9565b9350939150939495508335906001600160401b03821680920361025b57602081600193829352019401920187959493928f918e936111f6565b3461025b57602036600319011261025b576004355f52600360205261016060405f2080549060018101549060028101546003820154600483015460058401549060068501549262ffffff60078701549560636044890154980154986040519a8b5260208b015281811660408b015260181c166060890152608088015260a087015260c086015260e0850152610100840152610120830152610140820152f35b3461025b5761014036600319011261025b576113bf6115db565b5060c036602319011261025b576113d4611605565b506113dd61161b565b50610124356001600160401b03811161025b576113fe90369060040161163a565b7f00000000000000000000000000000000000000000000000000000000000000006001600160a01b031633036103db5760408260c061143c3661184f565b20928101031261025b576114a39061145f60206114588561183f565b940161183f565b5f91825260036020526040822091825542600183015560028201805465ffffffffffff191662ffffff9095169490941760189190911b65ffffff0000001617909255565b5f60038201555f60048201555f60058201555f60068201555f60078201555f60448201555f60638201555f6008820160268301926064604582019101925b601e81106114fb576040516303ffcd4b60e31b8152602090f35b806115086001928561196b565b8154905f199060031b1b19169055611520818761196b565b8154905f199060031b1b19169055611538818461196b565b8154905f199060031b1b19169055611550818661196b565b8154905f199060031b1b19169055016114e1565b3461025b57604036600319011261025b576004356001600160401b03811680910361025b576024359060ff821680830361025b576115a0611bf0565b60206040516115ae816117e8565b838152015268ff00000000000000006001549260401b169168ffffffffffffffffff191617176001555f80f35b600435906001600160a01b038216820361025b57565b35906001600160a01b038216820361025b57565b60e435906001600160a01b038216820361025b57565b61010435908160020b820361025b57565b35908160020b820361025b57565b9181601f8401121561025b578235916001600160401b03831161025b576020838186019501011161025b57565b9181601f8401121561025b578235916001600160401b03831161025b576020808501948460051b01011161025b57565b3461025b5761014036600319011261025b576004356001600160a01b038116810361025b575060c036602319011261025b57610124356001600160401b03811161025b576116e990369060040161163a565b5050630a85dc2960e01b5f908152600490fd5b6101a060031982011261025b576004356001600160a01b038116810361025b579160c060231983011261025b57602491608060e31982011261025b5760e491610164359161018435906001600160401b03821161025b5761175f9160040161163a565b9091565b905f905b601e821061177457505050565b6020806001928551815201930191019091611767565b3461025b5761018036600319011261025b576004356001600160a01b038116810361025b575060c036602319011261025b5760803660e319011261025b57610164356001600160401b03811161025b576116e990369060040161163a565b604081019081106001600160401b0382111761024757604052565b60c081019081106001600160401b0382111761024757604052565b90601f801991011681019081106001600160401b0382111761024757604052565b359062ffffff8216820361025b57565b60c090602319011261025b576040519061186882611803565b816024356001600160a01b038116810361025b5781526044356001600160a01b038116810361025b5760208201526064356001600160a01b038116810361025b5760408201526084356001600160a01b038116810361025b57606082015260a43562ffffff8116810361025b57608082015260a060c435910152565b91908260c091031261025b576040516118fc81611803565b8092611907816115f1565b8252611915602082016115f1565b602083015260408101356001600160a01b038116810361025b57604083015260608101356001600160a01b038116810361025b5760a0918291606085015261195f6080820161183f565b60808501520135910152565b601e82101561197a5701905f90565b634e487b7160e01b5f52603260045260245ffd5b9081602091031261025b5751801515810361025b5790565b81835290916001600160fb1b03831161025b5760209260051b809284830137010190565b156119d157565b60405162461bcd60e51b815260206004820152601560248201527464617461206e6f7420726561647920746f2075736560581b6044820152606490fd5b919081101561197a5760051b0190565b919081101561197a5760051b81013590601e198136030182121561025b5701908135916001600160401b03831161025b57602001823603811361025b579190565b9291926001600160401b0382116102475760405191611a88601f8201601f19166020018461181e565b82948184528183011161025b578281602093845f960137010152565b15611aab57565b60405162461bcd60e51b81526020600482015260166024820152751a5b9d985b1a590818da5c98dd5a5d081bdd5d1c1d5d60521b6044820152606490fd5b15611af057565b60405162461bcd60e51b815260206004820152600e60248201526d34b73b30b634b21031b0b63632b960911b6044820152606490fd5b9062ffffff8091169116019062ffffff821161056a57565b600f0b6f7fffffffffffffffffffffffffffffff19811461056a575f0390565b8181029291811591840414171561056a57565b8115611b7b570490565b634e487b7160e01b5f52601260045260245ffd5b9190820180921161056a57565b600160ff1b811461056a575f0390565b9190820391821161056a57565b60405191905f835b601e8210611bda57505050611bd86103c08361181e565b565b6001602081928554815201930191019091611bc1565b6002546001600160a01b03163303611c0457565b63118cdaa760e01b5f523360045260245ffd5b602090604051611c26816117e8565b6001549060ff6001600160401b0383169283835260401c1693849101529190565b91909160045403611ce7578060201161025b578135918160231161025b57602081013560e81c9160261161025b575f8381526003602052604090819020600201805465ffffffffffff191662ffffff8516176023939093013560d081901c65ffffff000000169390931790557f57f6f115fcf2b63d283553140f5f5862abcc63edc47369573dc22a2ab77ae8ba92909160e81c82519182526020820152a2565b60405162461bcd60e51b815260206004820152600a602482015269696e76616c696420766b60b01b6044820152606490fd5b611d97611bd8926001600160801b038160801d915f83600f0b121592835f14611dfb5760038601611d4d8483168254611b8f565b90555b8282600f0b915f83121595865f14611dc55760048901611d738487168254611b8f565b90555b15611db55716935b15611da55750165b80821115611d9e57505b8254611b8f565b81556120b7565b9050611d90565b611daf9150611b3e565b16611d86565b611dbe90611b3e565b1693611d7e565b82611dcf85611b3e565b1660048a019081548082115f14611dea5750505f9055611d76565b90611df491611bac565b9055611d76565b82611e0582611b3e565b16600387019081548082115f14611e205750505f9055611d50565b90611e2a91611bac565b9055611d50565b5f52600360205260405f20601d600882016026830160458401918360648601945b611e8b575084549055611e6484611f35565b905560448301549055606382015490555f81555f60068201555f6007820155600142910155565b5f19810181811161056a57611f1581611ed3611eaa611f26948761196b565b90549060031b1c611ebb868861196b565b90919082549060031b91821b915f19901b1916179055565b611ef1611ee0828861196b565b90549060031b1c611ebb868961196b565b611f0f611efe828961196b565b90549060031b1c611ebb868a61196b565b8761196b565b90549060031b1c611ebb838861196b565b801561056a575f190180611e52565b6007810154908115611f5a57611f57916006611f52920154611b71565b612187565b90565b50505f90565b5f52600360205260405f20600381015480156120ae57600482015490670de0b6b3a7640000820291808304670de0b6b3a7640000149015171561056a57611fa691611b71565b602582018054156120a7576062830154670de0b6b3a7640000810290808204670de0b6b3a7640000149015171561056a57611fe2915490611b71565b801561209d57670de0b6b3a7640000820291808304670de0b6b3a7640000149015171561056a5761201291611b71565b61201b81612187565b90670de0b6b3a76400000180670de0b6b3a76400001161056a578061204457505060635f910155565b600182901b916001600160ff1b0381160361056a57670de0b6b3a7640000820291808304670de0b6b3a7640000149015171561056a5761208391611b71565b670de0b6b3a763ffff1981019190821161056a5760630155565b505060635f910155565b5080611fe2565b5060635f910155565b6003810154801561218357600482015490670de0b6b3a7640000820291808304670de0b6b3a7640000149015171561056a576120f291611b71565b9060058101908154908161210557505055565b81841115612173576121178285611bac565b915b670de0b6b3a7640000830292808404670de0b6b3a7640000149015171561056a5761214961214f91600794611b71565b80611b5e565b61215e60068301918254611b8f565b90550180545f19811461056a57600101905555565b61217d8483611bac565b91612119565b5050565b60b581600160881b811015612232575b80690100000000000000000062010000921015612225575b65010000000000811015612218575b630100000081101561220b575b010260121c8082040160011c8082040160011c8082040160011c8082040160011c8082040160011c8082040160011c8082040160011c8080920410900390565b60101c9160081b916121cb565b60201c9160101b916121be565b60401c9160201b916121af565b5068b500000000000000009050608082901c61219756fe5613edd3b2ac1605c115fd63faf586543494584a8153be2623aec3377a567128a2646970667358221220b654cbf98587dfbfa02e5f66b1abe2fd01552891469b7bb8934daa2db61ee03864736f6c634300081a0033",
        "linkReferences": {}
    },
    "methodIdentifiers": {
        "HISTORICAL_DATA_POINTS()": "ed9d346a",
        "UPDATE_INTERVAL()": "89ac4147",
        "afterAddLiquidity(address,(address,address,address,address,uint24,bytes32),(int24,int24,int256,bytes32),int256,bytes)": "d533c4db",
        "afterDonate(address,(address,address,address,address,uint24,bytes32),uint256,uint256,bytes)": "5304d44e",
        "afterInitialize(address,(address,address,address,address,uint24,bytes32),uint160,int24,bytes)": "1ffe6a58",
        "afterRemoveLiquidity(address,(address,address,address,address,uint24,bytes32),(int24,int24,int256,bytes32),int256,bytes)": "7aa43ce0",
        "afterSwap(address,(address,address,address,address,uint24,bytes32),(bool,int256,uint160),int256,bytes)": "6f6657cb",
        "applyBrevisOpResult(bytes32,uint64,bytes32,bytes32,bytes)": "718f6ccd",
        "applyBrevisOpResults(bytes32[],uint64[],bytes32[],bytes32[],bytes[])": "34801657",
        "beforeAddLiquidity(address,(address,address,address,address,uint24,bytes32),(int24,int24,int256,bytes32),bytes)": "fe70c9c9",
        "beforeDonate(address,(address,address,address,address,uint24,bytes32),uint256,uint256,bytes)": "4b6a682d",
        "beforeInitialize(address,(address,address,address,address,uint24,bytes32),uint160,bytes)": "972e19a2",
        "beforeRemoveLiquidity(address,(address,address,address,address,uint24,bytes32),(int24,int24,int256,bytes32),bytes)": "e8246c7f",
        "beforeSwap(address,(address,address,address,address,uint24,bytes32),(bool,int256,uint160),bytes)": "e592dc93",
        "brevisBatchCallback(bytes32[],bytes[])": "3bca02fc",
        "brevisCallback(bytes32,bytes)": "79d6b6a2",
        "brevisOpConfig()": "c1bde0e1",
        "brevisRequest()": "38931a31",
        "getHooksRegistrationBitmap()": "f961d1f4",
        "getPoolData(bytes32)": "c657d6c6",
        "lockAcquired(bytes)": "ab6291fe",
        "owner()": "8da5cb5b",
        "poolDataMap(bytes32)": "2baa9331",
        "poolManager()": "dc4c90d3",
        "renounceOwnership()": "715018a6",
        "setBrevisOpConfig(uint64,uint8)": "03e66342",
        "setVkHash(bytes32)": "7859f6d9",
        "transferOwnership(address)": "f2fde38b",
        "vault()": "fbfa77cf",
        "vkHash()": "4fe840f5"
    },
    "id": 150
}