{
    "abi": [
        {
            "type": "constructor",
            "inputs": [
                {
                    "name": "_poolManager",
                    "type": "address",
                    "internalType": "contract ICLPoolManager"
                },
                {
                    "name": "_brevisProof",
                    "type": "address",
                    "internalType": "contract IBrevisProof"
                }
            ],
            "stateMutability": "nonpayable"
        },
        {
            "type": "function",
            "name": "afterAddLiquidity",
            "inputs": [
                {
                    "name": "",
                    "type": "address",
                    "internalType": "address"
                },
                {
                    "name": "",
                    "type": "tuple",
                    "internalType": "struct PoolKey",
                    "components": [
                        {
                            "name": "currency0",
                            "type": "address",
                            "internalType": "Currency"
                        },
                        {
                            "name": "currency1",
                            "type": "address",
                            "internalType": "Currency"
                        },
                        {
                            "name": "hooks",
                            "type": "address",
                            "internalType": "contract IHooks"
                        },
                        {
                            "name": "poolManager",
                            "type": "address",
                            "internalType": "contract IPoolManager"
                        },
                        {
                            "name": "fee",
                            "type": "uint24",
                            "internalType": "uint24"
                        },
                        {
                            "name": "parameters",
                            "type": "bytes32",
                            "internalType": "bytes32"
                        }
                    ]
                },
                {
                    "name": "",
                    "type": "tuple",
                    "internalType": "struct ICLPoolManager.ModifyLiquidityParams",
                    "components": [
                        {
                            "name": "tickLower",
                            "type": "int24",
                            "internalType": "int24"
                        },
                        {
                            "name": "tickUpper",
                            "type": "int24",
                            "internalType": "int24"
                        },
                        {
                            "name": "liquidityDelta",
                            "type": "int256",
                            "internalType": "int256"
                        },
                        {
                            "name": "salt",
                            "type": "bytes32",
                            "internalType": "bytes32"
                        }
                    ]
                },
                {
                    "name": "",
                    "type": "int256",
                    "internalType": "BalanceDelta"
                },
                {
                    "name": "",
                    "type": "bytes",
                    "internalType": "bytes"
                }
            ],
            "outputs": [
                {
                    "name": "",
                    "type": "bytes4",
                    "internalType": "bytes4"
                },
                {
                    "name": "",
                    "type": "int256",
                    "internalType": "BalanceDelta"
                }
            ],
            "stateMutability": "nonpayable"
        },
        {
            "type": "function",
            "name": "afterDonate",
            "inputs": [
                {
                    "name": "",
                    "type": "address",
                    "internalType": "address"
                },
                {
                    "name": "",
                    "type": "tuple",
                    "internalType": "struct PoolKey",
                    "components": [
                        {
                            "name": "currency0",
                            "type": "address",
                            "internalType": "Currency"
                        },
                        {
                            "name": "currency1",
                            "type": "address",
                            "internalType": "Currency"
                        },
                        {
                            "name": "hooks",
                            "type": "address",
                            "internalType": "contract IHooks"
                        },
                        {
                            "name": "poolManager",
                            "type": "address",
                            "internalType": "contract IPoolManager"
                        },
                        {
                            "name": "fee",
                            "type": "uint24",
                            "internalType": "uint24"
                        },
                        {
                            "name": "parameters",
                            "type": "bytes32",
                            "internalType": "bytes32"
                        }
                    ]
                },
                {
                    "name": "",
                    "type": "uint256",
                    "internalType": "uint256"
                },
                {
                    "name": "",
                    "type": "uint256",
                    "internalType": "uint256"
                },
                {
                    "name": "",
                    "type": "bytes",
                    "internalType": "bytes"
                }
            ],
            "outputs": [
                {
                    "name": "",
                    "type": "bytes4",
                    "internalType": "bytes4"
                }
            ],
            "stateMutability": "nonpayable"
        },
        {
            "type": "function",
            "name": "afterInitialize",
            "inputs": [
                {
                    "name": "",
                    "type": "address",
                    "internalType": "address"
                },
                {
                    "name": "key",
                    "type": "tuple",
                    "internalType": "struct PoolKey",
                    "components": [
                        {
                            "name": "currency0",
                            "type": "address",
                            "internalType": "Currency"
                        },
                        {
                            "name": "currency1",
                            "type": "address",
                            "internalType": "Currency"
                        },
                        {
                            "name": "hooks",
                            "type": "address",
                            "internalType": "contract IHooks"
                        },
                        {
                            "name": "poolManager",
                            "type": "address",
                            "internalType": "contract IPoolManager"
                        },
                        {
                            "name": "fee",
                            "type": "uint24",
                            "internalType": "uint24"
                        },
                        {
                            "name": "parameters",
                            "type": "bytes32",
                            "internalType": "bytes32"
                        }
                    ]
                },
                {
                    "name": "",
                    "type": "uint160",
                    "internalType": "uint160"
                },
                {
                    "name": "",
                    "type": "int24",
                    "internalType": "int24"
                },
                {
                    "name": "hookData",
                    "type": "bytes",
                    "internalType": "bytes"
                }
            ],
            "outputs": [
                {
                    "name": "",
                    "type": "bytes4",
                    "internalType": "bytes4"
                }
            ],
            "stateMutability": "nonpayable"
        },
        {
            "type": "function",
            "name": "afterRemoveLiquidity",
            "inputs": [
                {
                    "name": "",
                    "type": "address",
                    "internalType": "address"
                },
                {
                    "name": "",
                    "type": "tuple",
                    "internalType": "struct PoolKey",
                    "components": [
                        {
                            "name": "currency0",
                            "type": "address",
                            "internalType": "Currency"
                        },
                        {
                            "name": "currency1",
                            "type": "address",
                            "internalType": "Currency"
                        },
                        {
                            "name": "hooks",
                            "type": "address",
                            "internalType": "contract IHooks"
                        },
                        {
                            "name": "poolManager",
                            "type": "address",
                            "internalType": "contract IPoolManager"
                        },
                        {
                            "name": "fee",
                            "type": "uint24",
                            "internalType": "uint24"
                        },
                        {
                            "name": "parameters",
                            "type": "bytes32",
                            "internalType": "bytes32"
                        }
                    ]
                },
                {
                    "name": "",
                    "type": "tuple",
                    "internalType": "struct ICLPoolManager.ModifyLiquidityParams",
                    "components": [
                        {
                            "name": "tickLower",
                            "type": "int24",
                            "internalType": "int24"
                        },
                        {
                            "name": "tickUpper",
                            "type": "int24",
                            "internalType": "int24"
                        },
                        {
                            "name": "liquidityDelta",
                            "type": "int256",
                            "internalType": "int256"
                        },
                        {
                            "name": "salt",
                            "type": "bytes32",
                            "internalType": "bytes32"
                        }
                    ]
                },
                {
                    "name": "",
                    "type": "int256",
                    "internalType": "BalanceDelta"
                },
                {
                    "name": "",
                    "type": "bytes",
                    "internalType": "bytes"
                }
            ],
            "outputs": [
                {
                    "name": "",
                    "type": "bytes4",
                    "internalType": "bytes4"
                },
                {
                    "name": "",
                    "type": "int256",
                    "internalType": "BalanceDelta"
                }
            ],
            "stateMutability": "nonpayable"
        },
        {
            "type": "function",
            "name": "afterSwap",
            "inputs": [
                {
                    "name": "",
                    "type": "address",
                    "internalType": "address"
                },
                {
                    "name": "key",
                    "type": "tuple",
                    "internalType": "struct PoolKey",
                    "components": [
                        {
                            "name": "currency0",
                            "type": "address",
                            "internalType": "Currency"
                        },
                        {
                            "name": "currency1",
                            "type": "address",
                            "internalType": "Currency"
                        },
                        {
                            "name": "hooks",
                            "type": "address",
                            "internalType": "contract IHooks"
                        },
                        {
                            "name": "poolManager",
                            "type": "address",
                            "internalType": "contract IPoolManager"
                        },
                        {
                            "name": "fee",
                            "type": "uint24",
                            "internalType": "uint24"
                        },
                        {
                            "name": "parameters",
                            "type": "bytes32",
                            "internalType": "bytes32"
                        }
                    ]
                },
                {
                    "name": "",
                    "type": "tuple",
                    "internalType": "struct ICLPoolManager.SwapParams",
                    "components": [
                        {
                            "name": "zeroForOne",
                            "type": "bool",
                            "internalType": "bool"
                        },
                        {
                            "name": "amountSpecified",
                            "type": "int256",
                            "internalType": "int256"
                        },
                        {
                            "name": "sqrtPriceLimitX96",
                            "type": "uint160",
                            "internalType": "uint160"
                        }
                    ]
                },
                {
                    "name": "delta",
                    "type": "int256",
                    "internalType": "BalanceDelta"
                },
                {
                    "name": "",
                    "type": "bytes",
                    "internalType": "bytes"
                }
            ],
            "outputs": [
                {
                    "name": "",
                    "type": "bytes4",
                    "internalType": "bytes4"
                },
                {
                    "name": "",
                    "type": "int128",
                    "internalType": "int128"
                }
            ],
            "stateMutability": "nonpayable"
        },
        {
            "type": "function",
            "name": "applyBrevisOpResult",
            "inputs": [
                {
                    "name": "_proofId",
                    "type": "bytes32",
                    "internalType": "bytes32"
                },
                {
                    "name": "_nonce",
                    "type": "uint64",
                    "internalType": "uint64"
                },
                {
                    "name": "_appVkHash",
                    "type": "bytes32",
                    "internalType": "bytes32"
                },
                {
                    "name": "_appCommitHash",
                    "type": "bytes32",
                    "internalType": "bytes32"
                },
                {
                    "name": "_appCircuitOutput",
                    "type": "bytes",
                    "internalType": "bytes"
                }
            ],
            "outputs": [],
            "stateMutability": "nonpayable"
        },
        {
            "type": "function",
            "name": "applyBrevisOpResults",
            "inputs": [
                {
                    "name": "_proofIds",
                    "type": "bytes32[]",
                    "internalType": "bytes32[]"
                },
                {
                    "name": "_nonces",
                    "type": "uint64[]",
                    "internalType": "uint64[]"
                },
                {
                    "name": "_appVkHashes",
                    "type": "bytes32[]",
                    "internalType": "bytes32[]"
                },
                {
                    "name": "_appCommitHashes",
                    "type": "bytes32[]",
                    "internalType": "bytes32[]"
                },
                {
                    "name": "_appCircuitOutputs",
                    "type": "bytes[]",
                    "internalType": "bytes[]"
                }
            ],
            "outputs": [],
            "stateMutability": "nonpayable"
        },
        {
            "type": "function",
            "name": "beforeAddLiquidity",
            "inputs": [
                {
                    "name": "",
                    "type": "address",
                    "internalType": "address"
                },
                {
                    "name": "",
                    "type": "tuple",
                    "internalType": "struct PoolKey",
                    "components": [
                        {
                            "name": "currency0",
                            "type": "address",
                            "internalType": "Currency"
                        },
                        {
                            "name": "currency1",
                            "type": "address",
                            "internalType": "Currency"
                        },
                        {
                            "name": "hooks",
                            "type": "address",
                            "internalType": "contract IHooks"
                        },
                        {
                            "name": "poolManager",
                            "type": "address",
                            "internalType": "contract IPoolManager"
                        },
                        {
                            "name": "fee",
                            "type": "uint24",
                            "internalType": "uint24"
                        },
                        {
                            "name": "parameters",
                            "type": "bytes32",
                            "internalType": "bytes32"
                        }
                    ]
                },
                {
                    "name": "",
                    "type": "tuple",
                    "internalType": "struct ICLPoolManager.ModifyLiquidityParams",
                    "components": [
                        {
                            "name": "tickLower",
                            "type": "int24",
                            "internalType": "int24"
                        },
                        {
                            "name": "tickUpper",
                            "type": "int24",
                            "internalType": "int24"
                        },
                        {
                            "name": "liquidityDelta",
                            "type": "int256",
                            "internalType": "int256"
                        },
                        {
                            "name": "salt",
                            "type": "bytes32",
                            "internalType": "bytes32"
                        }
                    ]
                },
                {
                    "name": "",
                    "type": "bytes",
                    "internalType": "bytes"
                }
            ],
            "outputs": [
                {
                    "name": "",
                    "type": "bytes4",
                    "internalType": "bytes4"
                }
            ],
            "stateMutability": "nonpayable"
        },
        {
            "type": "function",
            "name": "beforeDonate",
            "inputs": [
                {
                    "name": "",
                    "type": "address",
                    "internalType": "address"
                },
                {
                    "name": "",
                    "type": "tuple",
                    "internalType": "struct PoolKey",
                    "components": [
                        {
                            "name": "currency0",
                            "type": "address",
                            "internalType": "Currency"
                        },
                        {
                            "name": "currency1",
                            "type": "address",
                            "internalType": "Currency"
                        },
                        {
                            "name": "hooks",
                            "type": "address",
                            "internalType": "contract IHooks"
                        },
                        {
                            "name": "poolManager",
                            "type": "address",
                            "internalType": "contract IPoolManager"
                        },
                        {
                            "name": "fee",
                            "type": "uint24",
                            "internalType": "uint24"
                        },
                        {
                            "name": "parameters",
                            "type": "bytes32",
                            "internalType": "bytes32"
                        }
                    ]
                },
                {
                    "name": "",
                    "type": "uint256",
                    "internalType": "uint256"
                },
                {
                    "name": "",
                    "type": "uint256",
                    "internalType": "uint256"
                },
                {
                    "name": "",
                    "type": "bytes",
                    "internalType": "bytes"
                }
            ],
            "outputs": [
                {
                    "name": "",
                    "type": "bytes4",
                    "internalType": "bytes4"
                }
            ],
            "stateMutability": "nonpayable"
        },
        {
            "type": "function",
            "name": "beforeInitialize",
            "inputs": [
                {
                    "name": "",
                    "type": "address",
                    "internalType": "address"
                },
                {
                    "name": "",
                    "type": "tuple",
                    "internalType": "struct PoolKey",
                    "components": [
                        {
                            "name": "currency0",
                            "type": "address",
                            "internalType": "Currency"
                        },
                        {
                            "name": "currency1",
                            "type": "address",
                            "internalType": "Currency"
                        },
                        {
                            "name": "hooks",
                            "type": "address",
                            "internalType": "contract IHooks"
                        },
                        {
                            "name": "poolManager",
                            "type": "address",
                            "internalType": "contract IPoolManager"
                        },
                        {
                            "name": "fee",
                            "type": "uint24",
                            "internalType": "uint24"
                        },
                        {
                            "name": "parameters",
                            "type": "bytes32",
                            "internalType": "bytes32"
                        }
                    ]
                },
                {
                    "name": "",
                    "type": "uint160",
                    "internalType": "uint160"
                },
                {
                    "name": "",
                    "type": "bytes",
                    "internalType": "bytes"
                }
            ],
            "outputs": [
                {
                    "name": "",
                    "type": "bytes4",
                    "internalType": "bytes4"
                }
            ],
            "stateMutability": "nonpayable"
        },
        {
            "type": "function",
            "name": "beforeRemoveLiquidity",
            "inputs": [
                {
                    "name": "",
                    "type": "address",
                    "internalType": "address"
                },
                {
                    "name": "",
                    "type": "tuple",
                    "internalType": "struct PoolKey",
                    "components": [
                        {
                            "name": "currency0",
                            "type": "address",
                            "internalType": "Currency"
                        },
                        {
                            "name": "currency1",
                            "type": "address",
                            "internalType": "Currency"
                        },
                        {
                            "name": "hooks",
                            "type": "address",
                            "internalType": "contract IHooks"
                        },
                        {
                            "name": "poolManager",
                            "type": "address",
                            "internalType": "contract IPoolManager"
                        },
                        {
                            "name": "fee",
                            "type": "uint24",
                            "internalType": "uint24"
                        },
                        {
                            "name": "parameters",
                            "type": "bytes32",
                            "internalType": "bytes32"
                        }
                    ]
                },
                {
                    "name": "",
                    "type": "tuple",
                    "internalType": "struct ICLPoolManager.ModifyLiquidityParams",
                    "components": [
                        {
                            "name": "tickLower",
                            "type": "int24",
                            "internalType": "int24"
                        },
                        {
                            "name": "tickUpper",
                            "type": "int24",
                            "internalType": "int24"
                        },
                        {
                            "name": "liquidityDelta",
                            "type": "int256",
                            "internalType": "int256"
                        },
                        {
                            "name": "salt",
                            "type": "bytes32",
                            "internalType": "bytes32"
                        }
                    ]
                },
                {
                    "name": "",
                    "type": "bytes",
                    "internalType": "bytes"
                }
            ],
            "outputs": [
                {
                    "name": "",
                    "type": "bytes4",
                    "internalType": "bytes4"
                }
            ],
            "stateMutability": "nonpayable"
        },
        {
            "type": "function",
            "name": "beforeSwap",
            "inputs": [
                {
                    "name": "",
                    "type": "address",
                    "internalType": "address"
                },
                {
                    "name": "key",
                    "type": "tuple",
                    "internalType": "struct PoolKey",
                    "components": [
                        {
                            "name": "currency0",
                            "type": "address",
                            "internalType": "Currency"
                        },
                        {
                            "name": "currency1",
                            "type": "address",
                            "internalType": "Currency"
                        },
                        {
                            "name": "hooks",
                            "type": "address",
                            "internalType": "contract IHooks"
                        },
                        {
                            "name": "poolManager",
                            "type": "address",
                            "internalType": "contract IPoolManager"
                        },
                        {
                            "name": "fee",
                            "type": "uint24",
                            "internalType": "uint24"
                        },
                        {
                            "name": "parameters",
                            "type": "bytes32",
                            "internalType": "bytes32"
                        }
                    ]
                },
                {
                    "name": "",
                    "type": "tuple",
                    "internalType": "struct ICLPoolManager.SwapParams",
                    "components": [
                        {
                            "name": "zeroForOne",
                            "type": "bool",
                            "internalType": "bool"
                        },
                        {
                            "name": "amountSpecified",
                            "type": "int256",
                            "internalType": "int256"
                        },
                        {
                            "name": "sqrtPriceLimitX96",
                            "type": "uint160",
                            "internalType": "uint160"
                        }
                    ]
                },
                {
                    "name": "",
                    "type": "bytes",
                    "internalType": "bytes"
                }
            ],
            "outputs": [
                {
                    "name": "",
                    "type": "bytes4",
                    "internalType": "bytes4"
                },
                {
                    "name": "",
                    "type": "int256",
                    "internalType": "BeforeSwapDelta"
                },
                {
                    "name": "",
                    "type": "uint24",
                    "internalType": "uint24"
                }
            ],
            "stateMutability": "view"
        },
        {
            "type": "function",
            "name": "brevisBatchCallback",
            "inputs": [
                {
                    "name": "_appVkHashes",
                    "type": "bytes32[]",
                    "internalType": "bytes32[]"
                },
                {
                    "name": "_appCircuitOutputs",
                    "type": "bytes[]",
                    "internalType": "bytes[]"
                }
            ],
            "outputs": [],
            "stateMutability": "nonpayable"
        },
        {
            "type": "function",
            "name": "brevisCallback",
            "inputs": [
                {
                    "name": "_appVkHash",
                    "type": "bytes32",
                    "internalType": "bytes32"
                },
                {
                    "name": "_appCircuitOutput",
                    "type": "bytes",
                    "internalType": "bytes"
                }
            ],
            "outputs": [],
            "stateMutability": "nonpayable"
        },
        {
            "type": "function",
            "name": "brevisOpConfig",
            "inputs": [],
            "outputs": [
                {
                    "name": "challengeWindow",
                    "type": "uint64",
                    "internalType": "uint64"
                },
                {
                    "name": "sigOption",
                    "type": "uint8",
                    "internalType": "uint8"
                }
            ],
            "stateMutability": "view"
        },
        {
            "type": "function",
            "name": "brevisRequest",
            "inputs": [],
            "outputs": [
                {
                    "name": "",
                    "type": "address",
                    "internalType": "address"
                }
            ],
            "stateMutability": "view"
        },
        {
            "type": "function",
            "name": "getHooksRegistrationBitmap",
            "inputs": [],
            "outputs": [
                {
                    "name": "",
                    "type": "uint16",
                    "internalType": "uint16"
                }
            ],
            "stateMutability": "pure"
        },
        {
            "type": "function",
            "name": "getPoolData",
            "inputs": [
                {
                    "name": "poolId",
                    "type": "bytes32",
                    "internalType": "PoolId"
                }
            ],
            "outputs": [
                {
                    "name": "",
                    "type": "tuple",
                    "internalType": "struct DynamicFeeAdjustmentHook.PoolData",
                    "components": [
                        {
                            "name": "cumulativeVolume",
                            "type": "uint256",
                            "internalType": "uint256"
                        },
                        {
                            "name": "lastUpdateTimestamp",
                            "type": "uint256",
                            "internalType": "uint256"
                        },
                        {
                            "name": "currentFee",
                            "type": "uint24",
                            "internalType": "uint24"
                        },
                        {
                            "name": "token0Balance",
                            "type": "uint256",
                            "internalType": "uint256"
                        },
                        {
                            "name": "token1Balance",
                            "type": "uint256",
                            "internalType": "uint256"
                        },
                        {
                            "name": "lastPrice",
                            "type": "uint256",
                            "internalType": "uint256"
                        },
                        {
                            "name": "volatilityAccumulator",
                            "type": "uint256",
                            "internalType": "uint256"
                        },
                        {
                            "name": "updateCount",
                            "type": "uint256",
                            "internalType": "uint256"
                        }
                    ]
                }
            ],
            "stateMutability": "view"
        },
        {
            "type": "function",
            "name": "lockAcquired",
            "inputs": [
                {
                    "name": "data",
                    "type": "bytes",
                    "internalType": "bytes"
                }
            ],
            "outputs": [
                {
                    "name": "",
                    "type": "bytes",
                    "internalType": "bytes"
                }
            ],
            "stateMutability": "nonpayable"
        },
        {
            "type": "function",
            "name": "owner",
            "inputs": [],
            "outputs": [
                {
                    "name": "",
                    "type": "address",
                    "internalType": "address"
                }
            ],
            "stateMutability": "view"
        },
        {
            "type": "function",
            "name": "poolDataMap",
            "inputs": [
                {
                    "name": "",
                    "type": "bytes32",
                    "internalType": "PoolId"
                }
            ],
            "outputs": [
                {
                    "name": "cumulativeVolume",
                    "type": "uint256",
                    "internalType": "uint256"
                },
                {
                    "name": "lastUpdateTimestamp",
                    "type": "uint256",
                    "internalType": "uint256"
                },
                {
                    "name": "currentFee",
                    "type": "uint24",
                    "internalType": "uint24"
                },
                {
                    "name": "token0Balance",
                    "type": "uint256",
                    "internalType": "uint256"
                },
                {
                    "name": "token1Balance",
                    "type": "uint256",
                    "internalType": "uint256"
                },
                {
                    "name": "lastPrice",
                    "type": "uint256",
                    "internalType": "uint256"
                },
                {
                    "name": "volatilityAccumulator",
                    "type": "uint256",
                    "internalType": "uint256"
                },
                {
                    "name": "updateCount",
                    "type": "uint256",
                    "internalType": "uint256"
                }
            ],
            "stateMutability": "view"
        },
        {
            "type": "function",
            "name": "poolManager",
            "inputs": [],
            "outputs": [
                {
                    "name": "",
                    "type": "address",
                    "internalType": "contract ICLPoolManager"
                }
            ],
            "stateMutability": "view"
        },
        {
            "type": "function",
            "name": "renounceOwnership",
            "inputs": [],
            "outputs": [],
            "stateMutability": "nonpayable"
        },
        {
            "type": "function",
            "name": "setVkHash",
            "inputs": [
                {
                    "name": "_vkHash",
                    "type": "bytes32",
                    "internalType": "bytes32"
                }
            ],
            "outputs": [],
            "stateMutability": "nonpayable"
        },
        {
            "type": "function",
            "name": "transferOwnership",
            "inputs": [
                {
                    "name": "newOwner",
                    "type": "address",
                    "internalType": "address"
                }
            ],
            "outputs": [],
            "stateMutability": "nonpayable"
        },
        {
            "type": "function",
            "name": "vault",
            "inputs": [],
            "outputs": [
                {
                    "name": "",
                    "type": "address",
                    "internalType": "contract IVault"
                }
            ],
            "stateMutability": "view"
        },
        {
            "type": "function",
            "name": "vkHash",
            "inputs": [],
            "outputs": [
                {
                    "name": "",
                    "type": "bytes32",
                    "internalType": "bytes32"
                }
            ],
            "stateMutability": "view"
        },
        {
            "type": "event",
            "name": "FeeUpdated",
            "inputs": [
                {
                    "name": "poolId",
                    "type": "bytes32",
                    "indexed": true,
                    "internalType": "PoolId"
                },
                {
                    "name": "newFee",
                    "type": "uint24",
                    "indexed": false,
                    "internalType": "uint24"
                }
            ],
            "anonymous": false
        },
        {
            "type": "event",
            "name": "OwnershipTransferred",
            "inputs": [
                {
                    "name": "previousOwner",
                    "type": "address",
                    "indexed": true,
                    "internalType": "address"
                },
                {
                    "name": "newOwner",
                    "type": "address",
                    "indexed": true,
                    "internalType": "address"
                }
            ],
            "anonymous": false
        },
        {
            "type": "event",
            "name": "PoolDataUpdated",
            "inputs": [
                {
                    "name": "poolId",
                    "type": "bytes32",
                    "indexed": true,
                    "internalType": "PoolId"
                },
                {
                    "name": "cumulativeVolume",
                    "type": "uint256",
                    "indexed": false,
                    "internalType": "uint256"
                },
                {
                    "name": "token0Balance",
                    "type": "uint256",
                    "indexed": false,
                    "internalType": "uint256"
                },
                {
                    "name": "token1Balance",
                    "type": "uint256",
                    "indexed": false,
                    "internalType": "uint256"
                },
                {
                    "name": "volatility",
                    "type": "uint256",
                    "indexed": false,
                    "internalType": "uint256"
                }
            ],
            "anonymous": false
        },
        {
            "type": "error",
            "name": "HookNotImplemented",
            "inputs": []
        },
        {
            "type": "error",
            "name": "InvalidPool",
            "inputs": []
        },
        {
            "type": "error",
            "name": "LockFailure",
            "inputs": []
        },
        {
            "type": "error",
            "name": "NotPoolManager",
            "inputs": []
        },
        {
            "type": "error",
            "name": "NotSelf",
            "inputs": []
        },
        {
            "type": "error",
            "name": "NotVault",
            "inputs": []
        },
        {
            "type": "error",
            "name": "OwnableInvalidOwner",
            "inputs": [
                {
                    "name": "owner",
                    "type": "address",
                    "internalType": "address"
                }
            ]
        },
        {
            "type": "error",
            "name": "OwnableUnauthorizedAccount",
            "inputs": [
                {
                    "name": "account",
                    "type": "address",
                    "internalType": "address"
                }
            ]
        }
    ],
    "bytecode": {
        "object": "0x60c080604052346101c6576040816118b6803803809161001f82856101dd565b8339810103126101c6578051906001600160a01b038216908183036101c657602001516001600160a01b03811692908390036101c65760805260405163fbfa77cf60e01b815290602090829060049082905afa9081156101d2575f9161018c575b5060a052604080519081016001600160401b03811182821017610178576040526001600160401b0381526001602090910181905280546001600160481b0319166001600160411b031790555f80546001600160a01b03191691909117905533156101655760028054336001600160a01b03198216811790925560405191906001600160a01b03167f8be0079c531659141344cd1fd0a4f28419497f9722a3daafe3b4186f6b6457e05f80a36116b590816102018239608051818181610319015281816103ad015281816108770152610f65015260a05181818161015f01526105410152f35b631e4fbdf760e01b5f525f60045260245ffd5b634e487b7160e01b5f52604160045260245ffd5b90506020813d6020116101ca575b816101a7602093836101dd565b810103126101c657516001600160a01b03811681036101c6575f610080565b5f80fd5b3d915061019a565b6040513d5f823e3d90fd5b601f909101601f19168101906001600160401b038211908210176101785760405256fe60806040526004361015610011575f80fd5b5f803560e01c9081631ffe6a5814610f055781632baa933114610e895781633480165714610c6e57816338931a3114610c475781633bca02fc14610baf5781634b6a682d14610b8d5781634fe840f514610b925781635304d44e14610b8d5781636f6657cb1461081c578163715018a6146107c1578163718f6ccd146106b45781637859f6d91461069357816379d6b6a2146106415781637aa43ce0146103dc5781638da5cb5b14610619578163972e19a2146105b8578163ab6291fe1461050f578163c1bde0e1146104df578163c657d6c6146103e1578163d533c4db146103dc578163dc4c90d314610398578163e592dc93146102c2578163e8246c7f14610145578163f2fde38b1461023c578163f961d1f414610191578163fbfa77cf1461014a575063fe70c9c914610145575f80fd5b6111b0565b3461018e578060031936011261018e576040517f00000000000000000000000000000000000000000000000000000000000000006001600160a01b03168152602090f35b80fd5b34610238575f366003190112610238576040516101c081018181106001600160401b03821117610224575f916101a091604052828152600160208201528260408201528260608201528260808201528260a0820152600160c0820152600160e082015282610100820152826101208201528261014082015282610160820152826101808201520152602060405160c28152f35b634e487b7160e01b5f52604160045260245ffd5b5f80fd5b3461023857602036600319011261023857610255611064565b61025d611658565b6001600160a01b031680156102af57600280546001600160a01b0319811683179091556001600160a01b03167f8be0079c531659141344cd1fd0a4f28419497f9722a3daafe3b4186f6b6457e05f80a3005b631e4fbdf760e01b5f525f60045260245ffd5b3461023857610160366003190112610238576102dc611064565b5060c03660231901126102385760603660e319011261023857610144356001600160401b03811161023857610315903690600401611090565b50507f00000000000000000000000000000000000000000000000000000000000000006001600160a01b031633036103895760c06103523661124b565b205f526003602052606062ffffff600260405f20015416624000006040519163e592dc9360e01b83525f6020840152176040820152f35b63570c108560e11b5f5260045ffd5b34610238575f366003190112610238576040517f00000000000000000000000000000000000000000000000000000000000000006001600160a01b03168152602090f35b611152565b34610238576020366003190112610238575f60e06040516104018161120e565b8281528260208201528260408201528260608201528260808201528260a08201528260c082015201526004355f52600360205261010060405f206040516104478161120e565b81549182825260018101546020830190815262ffffff6002830154166040840190815260038301546060850190815262ffffff6004850154926080870193845260058601549460a0880195865260e0600760068901549860c08b01998a5201549801978852604051988952516020890152511660408701525160608601525160808501525160a08401525160c08301525160e0820152f35b34610238575f36600319011261023857604060015460ff8251916001600160401b0381168352831c166020820152f35b34610238576020366003190112610238576004356001600160401b0381116102385761053f903690600401611090565b7f00000000000000000000000000000000000000000000000000000000000000006001600160a01b031633036105a95761057d604091602093611500565b815192839181835280519182918282860152018484015e5f828201840152601f01601f19168101030190f35b6362df054560e01b5f5260045ffd5b3461023857610120366003190112610238576105d2611064565b5060c0366023190112610238576105e761107a565b50610104356001600160401b03811161023857610608903690600401611090565b5050630a85dc2960e01b5f5260045ffd5b34610238575f366003190112610238576002546040516001600160a01b039091168152602090f35b34610238576040366003190112610238576024356001600160401b03811161023857610674610691913690600401611090565b9061068960018060a01b035f5416331461146b565b6004356115b1565b005b34610238576020366003190112610238576106ac611658565b600480359055005b346102385760a0366003190112610238576024356001600160401b038116809103610238576064356084356001600160401b0381116102385760c4926107006020923690600401611090565b92909161070b61156f565b96909160018060a01b035f541660ff604051998a95869463054eee2f60e41b8652600435600487015260248601528a6044860152604435606486015260848501521660a48301525afa9182156107b65761077361077a93610691965f91610787575b5061132c565b36916113f0565b6020815191012014611426565b6107a9915060203d6020116107af575b6107a1818361122a565b8101906112f0565b8761076d565b503d610797565b6040513d5f823e3d90fd5b34610238575f366003190112610238576107d9611658565b600280546001600160a01b031981169091555f906001600160a01b03167f8be0079c531659141344cd1fd0a4f28419497f9722a3daafe3b4186f6b6457e08280a3005b346102385761018036600319011261023857610836611064565b5060c03660231901126102385760603660e31901126102385761014435610164356001600160401b03811161023857610873903690600401611090565b50507f00000000000000000000000000000000000000000000000000000000000000006001600160a01b031633036103895760c06108b03661124b565b2090815f52600360205260405f208160801d906fffffffffffffffffffffffffffffffff610915816108f96108f0826108e8886114a8565b1686546114c8565b958686556114a8565b169461090a600385019687546114c8565b809655600f0b6114a8565b1690610926600482019283546114c8565b809255670de0b6b3a76400008202828104670de0b6b3a76400001483151715610b695784610953916114d5565b60058201805480610a89575b507f5f4b55d3165b020e7453748806da38873abfb0bf315fcd9553597cd57b278dbd9592608095949261099d925560076006820154910154906114d5565b9160b583600160881b811015610a74575b80690100000000000000000062010000921015610a67575b65010000000000811015610a5a575b6301000000811015610a4d575b010260121c8084040160011c8084040160011c8084040160011c8084040160011c8084040160011c8084040160011c8084040160011c928392839260405196875260208701526040860152041090036060820152a260408051636f6657cb60e01b81525f6020820152f35b60101c9160081b916109e2565b60201c9160101b916109d5565b60401c9160201b916109c6565b5068b50000000000000000905083861c6109ae565b80831115610b7d57610a9b81846114f3565b905b670de0b6b3a7640000820291808304670de0b6b3a76400001490151715610b6957610ac7916114d5565b80800290808204811490151715610b6957610ae7600685019182546114c8565b80825560078501908154925f198414610b6957600184019182845560188311610b14575b5050505061095f565b806018610b2b929c99969b9a9895979c04906114f3565b905515610b69577f5f4b55d3165b020e7453748806da38873abfb0bf315fcd9553597cd57b278dbd9760809761099d94559282959882959798610b0b565b634e487b7160e01b5f52601160045260245ffd5b610b8783826114f3565b90610a9d565b6110ed565b34610238575f366003190112610238576020600454604051908152f35b34610238576040366003190112610238576004356001600160401b03811161023857610bdf9036906004016110bd565b6024356001600160401b03811161023857610bfe9036906004016110bd565b90610c1360018060a01b035f5416331461146b565b5f5b838110610c1e57005b80610c41610c2f6001938789611370565b35610c3b838787611394565b916115b1565b01610c15565b34610238575f366003190112610238575f546040516001600160a01b039091168152602090f35b346102385760a0366003190112610238576004356001600160401b03811161023857610c9e9036906004016110bd565b6024356001600160401b03811161023857610cbd9036906004016110bd565b906044356001600160401b03811161023857610cdd9036906004016110bd565b9290916064356001600160401b03811161023857610cff9036906004016110bd565b96608435906001600160401b038211610238576004888792610d668a8799988e610d2e60c099369089016110bd565b9c909b6020610d3b61156f565b97909860018060a01b035f54169a6040519e8f9d8e63a90f4bd760e01b8152015260c48d0191611308565b8a81036003190160248c01528281520193905f905b808210610e4a57505050602098889694610da960ff95899895610dbb956003198b84030160448c0152611308565b87810360031901606489015291611308565b9260848501521660a483015203915afa80156107b657610de1915f91610e2b575061132c565b5f5b868110610dec57005b80610e0c610dfd6001938b86611370565b3561077a610773848989611394565b610e17818888611370565b50610e23818686611394565b505001610de3565b610e44915060203d6020116107af576107a1818361122a565b8961076d565b95509597995095975050508335906001600160401b038216809203610238576020816001938293520194019201928e898d9896948f94968b9997610d7b565b34610238576020366003190112610238576004355f52600360205261010060405f2080549060018101549062ffffff60028201541660038201546004830154906005840154926007600686015495015495604051978852602088015260408701526060860152608085015260a084015260c083015260e0820152f35b346102385761014036600319011261023857610f1f611064565b5060c036602319011261023857610f3461107a565b50610104358060020b0361023857610124356001600160401b03811161023857610f62903690600401611090565b907f00000000000000000000000000000000000000000000000000000000000000006001600160a01b031633036103895760208160c0610fa13661124b565b20938101031261023857359062ffffff821682036102385760079060405192610fc98461120e565b5f8452602084019042825262ffffff6040860191168152606085015f815260808601905f825262ffffff60a08801935f855260c08901955f875260e08a01975f89525f52600360205260405f2099518a555160018a0155511662ffffff60028901911662ffffff198254161790555160038701555160048601555160058501555160068401555191015560206040516303ffcd4b60e31b8152f35b600435906001600160a01b038216820361023857565b60e435906001600160a01b038216820361023857565b9181601f84011215610238578235916001600160401b038311610238576020838186019501011161023857565b9181601f84011215610238578235916001600160401b038311610238576020808501948460051b01011161023857565b3461023857610140366003190112610238576004356001600160a01b0381168103610238575060c036602319011261023857610124356001600160401b0381116102385761113f903690600401611090565b5050630a85dc2960e01b5f908152600490fd5b34610238576101a0366003190112610238576004356001600160a01b0381168103610238575060c03660231901126102385760803660e319011261023857610184356001600160401b0381116102385761113f903690600401611090565b3461023857610180366003190112610238576004356001600160a01b0381168103610238575060c03660231901126102385760803660e319011261023857610164356001600160401b0381116102385761113f903690600401611090565b61010081019081106001600160401b0382111761022457604052565b90601f801991011681019081106001600160401b0382111761022457604052565b60c0906023190112610238576040519060c082018281106001600160401b0382111761022457604052816024356001600160a01b03811681036102385781526044356001600160a01b03811681036102385760208201526064356001600160a01b03811681036102385760408201526084356001600160a01b038116810361023857606082015260a43562ffffff8116810361023857608082015260a060c435910152565b90816020910312610238575180151581036102385790565b81835290916001600160fb1b0383116102385760209260051b809284830137010190565b1561133357565b60405162461bcd60e51b815260206004820152601560248201527464617461206e6f7420726561647920746f2075736560581b6044820152606490fd5b91908110156113805760051b0190565b634e487b7160e01b5f52603260045260245ffd5b91908110156113805760051b81013590601e19813603018212156102385701908135916001600160401b038311610238576020018236038113610238579190565b6001600160401b03811161022457601f01601f191660200190565b9291926113fc826113d5565b9161140a604051938461122a565b829481845281830111610238578281602093845f960137010152565b1561142d57565b60405162461bcd60e51b81526020600482015260166024820152751a5b9d985b1a590818da5c98dd5a5d081bdd5d1c1d5d60521b6044820152606490fd5b1561147257565b60405162461bcd60e51b815260206004820152600e60248201526d34b73b30b634b21031b0b63632b960911b6044820152606490fd5b600f0b6f7fffffffffffffffffffffffffffffff198114610b69575f0390565b91908201809211610b6957565b81156114df570490565b634e487b7160e01b5f52601260045260245ffd5b91908203918211610b6957565b5f9182918160405192839283378101838152039082305af1903d15611567573d9161152a836113d5565b92611538604051948561122a565b83523d5f602085013e5b611565575080511561155657602081519101fd5b6314815f4760e31b5f5260045ffd5b565b606091611542565b6040519060408201918083106001600160401b03841117610224576020926040526001549060ff6001600160401b0383169283835260401c1693849101529190565b60045403611626578160201161023857803591602311610238576020807f9e08adfcd4201e934c207820db58581f658e509be61fb1e02a5e7c17b49b734292013560e81c835f52600382525f604081206002810162ffffff841662ffffff1982541617905542600182015555604051908152a2565b60405162461bcd60e51b815260206004820152600a602482015269696e76616c696420766b60b01b6044820152606490fd5b6002546001600160a01b0316330361166c57565b63118cdaa760e01b5f523360045260245ffdfea2646970667358221220aa59f6b4591231ac86f840414f0a15521a97ce344796114171d1b15ed858b4f564736f6c634300081a0033",
        "linkReferences": {}
    },
    "methodIdentifiers": {
        "afterAddLiquidity(address,(address,address,address,address,uint24,bytes32),(int24,int24,int256,bytes32),int256,bytes)": "d533c4db",
        "afterDonate(address,(address,address,address,address,uint24,bytes32),uint256,uint256,bytes)": "5304d44e",
        "afterInitialize(address,(address,address,address,address,uint24,bytes32),uint160,int24,bytes)": "1ffe6a58",
        "afterRemoveLiquidity(address,(address,address,address,address,uint24,bytes32),(int24,int24,int256,bytes32),int256,bytes)": "7aa43ce0",
        "afterSwap(address,(address,address,address,address,uint24,bytes32),(bool,int256,uint160),int256,bytes)": "6f6657cb",
        "applyBrevisOpResult(bytes32,uint64,bytes32,bytes32,bytes)": "718f6ccd",
        "applyBrevisOpResults(bytes32[],uint64[],bytes32[],bytes32[],bytes[])": "34801657",
        "beforeAddLiquidity(address,(address,address,address,address,uint24,bytes32),(int24,int24,int256,bytes32),bytes)": "fe70c9c9",
        "beforeDonate(address,(address,address,address,address,uint24,bytes32),uint256,uint256,bytes)": "4b6a682d",
        "beforeInitialize(address,(address,address,address,address,uint24,bytes32),uint160,bytes)": "972e19a2",
        "beforeRemoveLiquidity(address,(address,address,address,address,uint24,bytes32),(int24,int24,int256,bytes32),bytes)": "e8246c7f",
        "beforeSwap(address,(address,address,address,address,uint24,bytes32),(bool,int256,uint160),bytes)": "e592dc93",
        "brevisBatchCallback(bytes32[],bytes[])": "3bca02fc",
        "brevisCallback(bytes32,bytes)": "79d6b6a2",
        "brevisOpConfig()": "c1bde0e1",
        "brevisRequest()": "38931a31",
        "getHooksRegistrationBitmap()": "f961d1f4",
        "getPoolData(bytes32)": "c657d6c6",
        "lockAcquired(bytes)": "ab6291fe",
        "owner()": "8da5cb5b",
        "poolDataMap(bytes32)": "2baa9331",
        "poolManager()": "dc4c90d3",
        "renounceOwnership()": "715018a6",
        "setVkHash(bytes32)": "7859f6d9",
        "transferOwnership(address)": "f2fde38b",
        "vault()": "fbfa77cf",
        "vkHash()": "4fe840f5"
    },
    "id": 186
}